{
  "address": "0x72F3b63AE1F2a789818a0234e4eFbeB5C0F768a5",
  "abi": [
    {
      "inputs": [],
      "stateMutability": "nonpayable",
      "type": "constructor"
    },
    {
      "inputs": [
        {
          "internalType": "address",
          "name": "_token",
          "type": "address"
        },
        {
          "internalType": "address[]",
          "name": "_addresses",
          "type": "address[]"
        },
        {
          "internalType": "uint256[]",
          "name": "_amounts",
          "type": "uint256[]"
        }
      ],
      "name": "multiTransferToken",
      "outputs": [],
      "stateMutability": "nonpayable",
      "type": "function"
    },
    {
      "inputs": [],
      "name": "owner",
      "outputs": [
        {
          "internalType": "address",
          "name": "",
          "type": "address"
        }
      ],
      "stateMutability": "view",
      "type": "function"
    }
  ],
  "transactionHash": "0x6bd3beab967f810cdb29465cf9b8617b74e1a2c8ab85899a57e691fbc0eafce4",
  "args": [],
  "numDeployments": 1,
  "solcInputHash": "f64216784b2b22c11d633961395f3cce",
  "bytecode": "0x608060405234801561001057600080fd5b50600080546001600160a01b031916331790556103dc806100326000396000f3fe608060405234801561001057600080fd5b50600436106100365760003560e01c806341ed24a21461003b5780638da5cb5b14610050575b600080fd5b61004e61004936600461029d565b61007f565b005b600054610063906001600160a01b031681565b6040516001600160a01b03909116815260200160405180910390f35b6000546001600160a01b031633146100ca5760405162461bcd60e51b815260206004820152600960248201526837b7363ca7bbb732b960b91b60448201526064015b60405180910390fd5b82811461012c5760405162461bcd60e51b815260206004820152602a60248201527f4c656e67746873206f662041646472657373657320616e6420416d6f756e7473604482015269081393d508115455505360b21b60648201526084016100c1565b8460005b60ff811685111561022c57816001600160a01b03166323b872dd3388888560ff168181106101605761016061031e565b90506020020160208101906101759190610334565b87878660ff1681811061018a5761018a61031e565b6040516001600160e01b031960e088901b1681526001600160a01b03958616600482015294909316602485015250602090910201356044820152606401602060405180830381600087803b1580156101e157600080fd5b505af11580156101f5573d6000803e3d6000fd5b505050506040513d601f19601f820116820180604052508101906102199190610356565b508061022481610378565b915050610130565b50505050505050565b80356001600160a01b038116811461024c57600080fd5b919050565b60008083601f84011261026357600080fd5b50813567ffffffffffffffff81111561027b57600080fd5b6020830191508360208260051b850101111561029657600080fd5b9250929050565b6000806000806000606086880312156102b557600080fd5b6102be86610235565b9450602086013567ffffffffffffffff808211156102db57600080fd5b6102e789838a01610251565b9096509450604088013591508082111561030057600080fd5b5061030d88828901610251565b969995985093965092949392505050565b634e487b7160e01b600052603260045260246000fd5b60006020828403121561034657600080fd5b61034f82610235565b9392505050565b60006020828403121561036857600080fd5b8151801515811461034f57600080fd5b600060ff821660ff81141561039d57634e487b7160e01b600052601160045260246000fd5b6001019291505056fea2646970667358221220869f909bf0e96dbf627eb49c02aba05d12ff847cd85522aaf463f3600be73c0264736f6c63430008080033",
  "devdoc": {
    "kind": "dev",
    "methods": {
      "multiTransferToken(address,address[],uint256[])": {
        "params": {
          "_addresses": "空投地址数组",
          "_amounts": "代币数量数组（每个地址的空投数量）",
          "_token": "转账的ERC20代币地址"
        }
      }
    },
    "version": 1
  },
  "userdoc": {
    "kind": "user",
    "methods": {
      "multiTransferToken(address,address[],uint256[])": {
        "notice": "向多个地址转账ERC20代币，使用前需要先授权"
      }
    },
    "version": 1
  },
  "storageLayout": {
    "storage": [
      {
        "astId": 82,
        "contract": "contracts/airdrop.sol:airdrop",
        "label": "owner",
        "offset": 0,
        "slot": "0",
        "type": "t_address"
      }
    ],
    "types": {
      "t_address": {
        "encoding": "inplace",
        "label": "address",
        "numberOfBytes": "20"
      }
    }
  }
}